{
  "contractName": "WrappedAeternity",
  "abi": [
    {
      "inputs": [
        {
          "internalType": "address",
          "name": "_admin1",
          "type": "address"
        },
        {
          "internalType": "address",
          "name": "_admin2",
          "type": "address"
        },
        {
          "internalType": "address",
          "name": "_admin3",
          "type": "address"
        }
      ],
      "stateMutability": "nonpayable",
      "type": "constructor"
    },
    {
      "anonymous": false,
      "inputs": [
        {
          "indexed": true,
          "internalType": "address",
          "name": "owner",
          "type": "address"
        },
        {
          "indexed": true,
          "internalType": "address",
          "name": "spender",
          "type": "address"
        },
        {
          "indexed": false,
          "internalType": "uint256",
          "name": "value",
          "type": "uint256"
        }
      ],
      "name": "Approval",
      "type": "event"
    },
    {
      "anonymous": false,
      "inputs": [
        {
          "indexed": true,
          "internalType": "address",
          "name": "from",
          "type": "address"
        },
        {
          "indexed": true,
          "internalType": "address",
          "name": "to",
          "type": "address"
        },
        {
          "indexed": false,
          "internalType": "uint256",
          "name": "value",
          "type": "uint256"
        }
      ],
      "name": "Transfer",
      "type": "event"
    },
    {
      "anonymous": false,
      "inputs": [
        {
          "indexed": false,
          "internalType": "uint256",
          "name": "",
          "type": "uint256"
        },
        {
          "indexed": false,
          "internalType": "address",
          "name": "",
          "type": "address"
        }
      ],
      "name": "wrapped",
      "type": "event"
    },
    {
      "inputs": [],
      "name": "admin1",
      "outputs": [
        {
          "internalType": "address",
          "name": "",
          "type": "address"
        }
      ],
      "stateMutability": "view",
      "type": "function",
      "constant": true
    },
    {
      "inputs": [],
      "name": "admin2",
      "outputs": [
        {
          "internalType": "address",
          "name": "",
          "type": "address"
        }
      ],
      "stateMutability": "view",
      "type": "function",
      "constant": true
    },
    {
      "inputs": [],
      "name": "admin3",
      "outputs": [
        {
          "internalType": "address",
          "name": "",
          "type": "address"
        }
      ],
      "stateMutability": "view",
      "type": "function",
      "constant": true
    },
    {
      "inputs": [
        {
          "internalType": "address",
          "name": "owner",
          "type": "address"
        },
        {
          "internalType": "address",
          "name": "spender",
          "type": "address"
        }
      ],
      "name": "allowance",
      "outputs": [
        {
          "internalType": "uint256",
          "name": "",
          "type": "uint256"
        }
      ],
      "stateMutability": "view",
      "type": "function",
      "constant": true
    },
    {
      "inputs": [
        {
          "internalType": "address",
          "name": "spender",
          "type": "address"
        },
        {
          "internalType": "uint256",
          "name": "amount",
          "type": "uint256"
        }
      ],
      "name": "approve",
      "outputs": [
        {
          "internalType": "bool",
          "name": "",
          "type": "bool"
        }
      ],
      "stateMutability": "nonpayable",
      "type": "function"
    },
    {
      "inputs": [
        {
          "internalType": "address",
          "name": "account",
          "type": "address"
        }
      ],
      "name": "balanceOf",
      "outputs": [
        {
          "internalType": "uint256",
          "name": "",
          "type": "uint256"
        }
      ],
      "stateMutability": "view",
      "type": "function",
      "constant": true
    },
    {
      "inputs": [
        {
          "internalType": "uint256",
          "name": "amount",
          "type": "uint256"
        }
      ],
      "name": "burn",
      "outputs": [],
      "stateMutability": "nonpayable",
      "type": "function"
    },
    {
      "inputs": [
        {
          "internalType": "address",
          "name": "account",
          "type": "address"
        },
        {
          "internalType": "uint256",
          "name": "amount",
          "type": "uint256"
        }
      ],
      "name": "burnFrom",
      "outputs": [],
      "stateMutability": "nonpayable",
      "type": "function"
    },
    {
      "inputs": [],
      "name": "decimals",
      "outputs": [
        {
          "internalType": "uint8",
          "name": "",
          "type": "uint8"
        }
      ],
      "stateMutability": "view",
      "type": "function",
      "constant": true
    },
    {
      "inputs": [
        {
          "internalType": "address",
          "name": "spender",
          "type": "address"
        },
        {
          "internalType": "uint256",
          "name": "subtractedValue",
          "type": "uint256"
        }
      ],
      "name": "decreaseAllowance",
      "outputs": [
        {
          "internalType": "bool",
          "name": "",
          "type": "bool"
        }
      ],
      "stateMutability": "nonpayable",
      "type": "function"
    },
    {
      "inputs": [
        {
          "internalType": "address",
          "name": "spender",
          "type": "address"
        },
        {
          "internalType": "uint256",
          "name": "addedValue",
          "type": "uint256"
        }
      ],
      "name": "increaseAllowance",
      "outputs": [
        {
          "internalType": "bool",
          "name": "",
          "type": "bool"
        }
      ],
      "stateMutability": "nonpayable",
      "type": "function"
    },
    {
      "inputs": [
        {
          "internalType": "address",
          "name": "",
          "type": "address"
        }
      ],
      "name": "multiSigHashes",
      "outputs": [
        {
          "internalType": "bytes32",
          "name": "",
          "type": "bytes32"
        }
      ],
      "stateMutability": "view",
      "type": "function",
      "constant": true
    },
    {
      "inputs": [],
      "name": "name",
      "outputs": [
        {
          "internalType": "string",
          "name": "",
          "type": "string"
        }
      ],
      "stateMutability": "view",
      "type": "function",
      "constant": true
    },
    {
      "inputs": [],
      "name": "symbol",
      "outputs": [
        {
          "internalType": "string",
          "name": "",
          "type": "string"
        }
      ],
      "stateMutability": "view",
      "type": "function",
      "constant": true
    },
    {
      "inputs": [],
      "name": "totalSupply",
      "outputs": [
        {
          "internalType": "uint256",
          "name": "",
          "type": "uint256"
        }
      ],
      "stateMutability": "view",
      "type": "function",
      "constant": true
    },
    {
      "inputs": [
        {
          "internalType": "address",
          "name": "to",
          "type": "address"
        },
        {
          "internalType": "uint256",
          "name": "amount",
          "type": "uint256"
        }
      ],
      "name": "transfer",
      "outputs": [
        {
          "internalType": "bool",
          "name": "",
          "type": "bool"
        }
      ],
      "stateMutability": "nonpayable",
      "type": "function"
    },
    {
      "inputs": [
        {
          "internalType": "address",
          "name": "from",
          "type": "address"
        },
        {
          "internalType": "address",
          "name": "to",
          "type": "address"
        },
        {
          "internalType": "uint256",
          "name": "amount",
          "type": "uint256"
        }
      ],
      "name": "transferFrom",
      "outputs": [
        {
          "internalType": "bool",
          "name": "",
          "type": "bool"
        }
      ],
      "stateMutability": "nonpayable",
      "type": "function"
    },
    {
      "inputs": [
        {
          "internalType": "address",
          "name": "_to",
          "type": "address"
        },
        {
          "internalType": "uint256",
          "name": "_amount",
          "type": "uint256"
        }
      ],
      "name": "mint",
      "outputs": [],
      "stateMutability": "nonpayable",
      "type": "function"
    },
    {
      "inputs": [
        {
          "internalType": "address",
          "name": "a",
          "type": "address"
        }
      ],
      "name": "toBytes",
      "outputs": [
        {
          "internalType": "bytes",
          "name": "b",
          "type": "bytes"
        }
      ],
      "stateMutability": "pure",
      "type": "function",
      "constant": true
    }
  ],
  "bytecode": "0x60806040523480156200001157600080fd5b506040516200286d3803806200286d83398181016040528101906200003791906200056d565b6040518060400160405280601181526020017f577261707065642041657465726e6974790000000000000000000000000000008152506040518060400160405280600381526020017f57414500000000000000000000000000000000000000000000000000000000008152508160039080519060200190620000bb929190620004a6565b508060049080519060200190620000d4929190620004a6565b5050508173ffffffffffffffffffffffffffffffffffffffff168373ffffffffffffffffffffffffffffffffffffffff1614156200011157600080fd5b8073ffffffffffffffffffffffffffffffffffffffff168273ffffffffffffffffffffffffffffffffffffffff1614156200014b57600080fd5b8073ffffffffffffffffffffffffffffffffffffffff168373ffffffffffffffffffffffffffffffffffffffff1614156200018557600080fd5b600073ffffffffffffffffffffffffffffffffffffffff168373ffffffffffffffffffffffffffffffffffffffff161415620001c057600080fd5b600073ffffffffffffffffffffffffffffffffffffffff168273ffffffffffffffffffffffffffffffffffffffff161415620001fb57600080fd5b600073ffffffffffffffffffffffffffffffffffffffff168173ffffffffffffffffffffffffffffffffffffffff1614156200023657600080fd5b82600660006101000a81548173ffffffffffffffffffffffffffffffffffffffff021916908373ffffffffffffffffffffffffffffffffffffffff16021790555081600760006101000a81548173ffffffffffffffffffffffffffffffffffffffff021916908373ffffffffffffffffffffffffffffffffffffffff16021790555080600860006101000a81548173ffffffffffffffffffffffffffffffffffffffff021916908373ffffffffffffffffffffffffffffffffffffffff160217905550620003096200031260201b60201c565b50505062000681565b7f41b1a0649752af1b28b3dc29a1556eee781e4a4c3a1f7f53f90fa834de098c4d60056000600660009054906101000a900473ffffffffffffffffffffffffffffffffffffffff1673ffffffffffffffffffffffffffffffffffffffff1673ffffffffffffffffffffffffffffffffffffffff168152602001908152602001600020819055507f435cd288e3694b535549c3af56ad805c149f92961bf84a1c647f7d86fc2431b460056000600760009054906101000a900473ffffffffffffffffffffffffffffffffffffffff1673ffffffffffffffffffffffffffffffffffffffff1673ffffffffffffffffffffffffffffffffffffffff168152602001908152602001600020819055507ff2d05ec5c5729fb559780c70a93ca7b4ee2ca37f64e62fa31046b324f60d944760056000600860009054906101000a900473ffffffffffffffffffffffffffffffffffffffff1673ffffffffffffffffffffffffffffffffffffffff1673ffffffffffffffffffffffffffffffffffffffff16815260200190815260200160002081905550565b828054620004b490620005fd565b90600052602060002090601f016020900481019282620004d8576000855562000524565b82601f10620004f357805160ff191683800117855562000524565b8280016001018555821562000524579182015b828111156200052357825182559160200191906001019062000506565b5b50905062000533919062000537565b5090565b5b808211156200055257600081600090555060010162000538565b5090565b600081519050620005678162000667565b92915050565b60008060006060848603121562000589576200058862000662565b5b6000620005998682870162000556565b9350506020620005ac8682870162000556565b9250506040620005bf8682870162000556565b9150509250925092565b6000620005d682620005dd565b9050919050565b600073ffffffffffffffffffffffffffffffffffffffff82169050919050565b600060028204905060018216806200061657607f821691505b602082108114156200062d576200062c62000633565b5b50919050565b7f4e487b7100000000000000000000000000000000000000000000000000000000600052602260045260246000fd5b600080fd5b6200067281620005c9565b81146200067e57600080fd5b50565b6121dc80620006916000396000f3fe608060405234801561001057600080fd5b50600436106101215760003560e01c806340c10f19116100ad57806379cc67901161007157806379cc67901461033257806395d89b411461034e578063a457c2d71461036c578063a9059cbb1461039c578063dd62ed3e146103cc57610121565b806340c10f191461026a57806342966c6814610286578063593b79fe146102a257806370830912146102d257806370a082311461030257610121565b806318160ddd116100f457806318160ddd146101b05780631de46a78146101ce57806323b872dd146101ec578063313ce5671461021c578063395093511461023a57610121565b806306a8f8a21461012657806306fdde0314610144578063095ea7b314610162578063115976c414610192575b600080fd5b61012e6103fc565b60405161013b9190611a1d565b60405180910390f35b61014c610422565b6040516101599190611a90565b60405180910390f35b61017c60048036038101906101779190611734565b6104b4565b6040516101899190611a38565b60405180910390f35b61019a6104d7565b6040516101a79190611a1d565b60405180910390f35b6101b86104fd565b6040516101c59190611c12565b60405180910390f35b6101d6610507565b6040516101e39190611a1d565b60405180910390f35b610206600480360381019061020191906116e1565b61052d565b6040516102139190611a38565b60405180910390f35b61022461055c565b6040516102319190611c56565b60405180910390f35b610254600480360381019061024f9190611734565b610565565b6040516102619190611a38565b60405180910390f35b610284600480360381019061027f9190611734565b61059c565b005b6102a0600480360381019061029b9190611774565b610a03565b005b6102bc60048036038101906102b79190611674565b610a17565b6040516102c99190611a6e565b60405180910390f35b6102ec60048036038101906102e79190611674565b610a62565b6040516102f99190611a53565b60405180910390f35b61031c60048036038101906103179190611674565b610a7a565b6040516103299190611c12565b60405180910390f35b61034c60048036038101906103479190611734565b610ac2565b005b610356610ae2565b6040516103639190611a90565b60405180910390f35b61038660048036038101906103819190611734565b610b74565b6040516103939190611a38565b60405180910390f35b6103b660048036038101906103b19190611734565b610beb565b6040516103c39190611a38565b60405180910390f35b6103e660048036038101906103e191906116a1565b610c0e565b6040516103f39190611c12565b60405180910390f35b600760009054906101000a900473ffffffffffffffffffffffffffffffffffffffff1681565b60606003805461043190611ddf565b80601f016020809104026020016040519081016040528092919081815260200182805461045d90611ddf565b80156104aa5780601f1061047f576101008083540402835291602001916104aa565b820191906000526020600020905b81548152906001019060200180831161048d57829003601f168201915b5050505050905090565b6000806104bf610c95565b90506104cc818585610c9d565b600191505092915050565b600660009054906101000a900473ffffffffffffffffffffffffffffffffffffffff1681565b6000600254905090565b600860009054906101000a900473ffffffffffffffffffffffffffffffffffffffff1681565b600080610538610c95565b9050610545858285610e68565b610550858585610ef4565b60019150509392505050565b60006012905090565b600080610570610c95565b90506105918185856105828589610c0e565b61058c9190611cb4565b610c9d565b600191505092915050565b80600081116105e0576040517f08c379a00000000000000000000000000000000000000000000000000000000081526004016105d790611b52565b60405180910390fd5b600660009054906101000a900473ffffffffffffffffffffffffffffffffffffffff1673ffffffffffffffffffffffffffffffffffffffff163373ffffffffffffffffffffffffffffffffffffffff1614806106895750600760009054906101000a900473ffffffffffffffffffffffffffffffffffffffff1673ffffffffffffffffffffffffffffffffffffffff163373ffffffffffffffffffffffffffffffffffffffff16145b806106e15750600860009054906101000a900473ffffffffffffffffffffffffffffffffffffffff1673ffffffffffffffffffffffffffffffffffffffff163373ffffffffffffffffffffffffffffffffffffffff16145b6106ea57600080fd5b6000366040516106fb929190611a04565b6040518091039020600560003373ffffffffffffffffffffffffffffffffffffffff1673ffffffffffffffffffffffffffffffffffffffff1681526020019081526020016000208190555060056000600760009054906101000a900473ffffffffffffffffffffffffffffffffffffffff1673ffffffffffffffffffffffffffffffffffffffff1673ffffffffffffffffffffffffffffffffffffffff1681526020019081526020016000205460056000600660009054906101000a900473ffffffffffffffffffffffffffffffffffffffff1673ffffffffffffffffffffffffffffffffffffffff1673ffffffffffffffffffffffffffffffffffffffff1681526020019081526020016000205414806108d7575060056000600860009054906101000a900473ffffffffffffffffffffffffffffffffffffffff1673ffffffffffffffffffffffffffffffffffffffff1673ffffffffffffffffffffffffffffffffffffffff1681526020019081526020016000205460056000600760009054906101000a900473ffffffffffffffffffffffffffffffffffffffff1673ffffffffffffffffffffffffffffffffffffffff1673ffffffffffffffffffffffffffffffffffffffff16815260200190815260200160002054145b806109a3575060056000600860009054906101000a900473ffffffffffffffffffffffffffffffffffffffff1673ffffffffffffffffffffffffffffffffffffffff1673ffffffffffffffffffffffffffffffffffffffff1681526020019081526020016000205460056000600660009054906101000a900473ffffffffffffffffffffffffffffffffffffffff1673ffffffffffffffffffffffffffffffffffffffff1673ffffffffffffffffffffffffffffffffffffffff16815260200190815260200160002054145b156109f8576109b28383611175565b7f271997f837364560071e880b9d8089692f834b3771878c7b1cd5eea1d2ca517682846040516109e3929190611c2d565b60405180910390a16109f36112d5565b6109fd565b6109fe565b5b505050565b610a14610a0e610c95565b82611469565b50565b606060405173ffffffffffffffffffffffffffffffffffffffff8316925082741400000000000000000000000000000000000000001860148201526034810160405280915050919050565b60056020528060005260406000206000915090505481565b60008060008373ffffffffffffffffffffffffffffffffffffffff1673ffffffffffffffffffffffffffffffffffffffff168152602001908152602001600020549050919050565b610ad482610ace610c95565b83610e68565b610ade8282611469565b5050565b606060048054610af190611ddf565b80601f0160208091040260200160405190810160405280929190818152602001828054610b1d90611ddf565b8015610b6a5780601f10610b3f57610100808354040283529160200191610b6a565b820191906000526020600020905b815481529060010190602001808311610b4d57829003601f168201915b5050505050905090565b600080610b7f610c95565b90506000610b8d8286610c0e565b905083811015610bd2576040517f08c379a0000000000000000000000000000000000000000000000000000000008152600401610bc990611bd2565b60405180910390fd5b610bdf8286868403610c9d565b60019250505092915050565b600080610bf6610c95565b9050610c03818585610ef4565b600191505092915050565b6000600160008473ffffffffffffffffffffffffffffffffffffffff1673ffffffffffffffffffffffffffffffffffffffff16815260200190815260200160002060008373ffffffffffffffffffffffffffffffffffffffff1673ffffffffffffffffffffffffffffffffffffffff16815260200190815260200160002054905092915050565b600033905090565b600073ffffffffffffffffffffffffffffffffffffffff168373ffffffffffffffffffffffffffffffffffffffff161415610d0d576040517f08c379a0000000000000000000000000000000000000000000000000000000008152600401610d0490611bb2565b60405180910390fd5b600073ffffffffffffffffffffffffffffffffffffffff168273ffffffffffffffffffffffffffffffffffffffff161415610d7d576040517f08c379a0000000000000000000000000000000000000000000000000000000008152600401610d7490611af2565b60405180910390fd5b80600160008573ffffffffffffffffffffffffffffffffffffffff1673ffffffffffffffffffffffffffffffffffffffff16815260200190815260200160002060008473ffffffffffffffffffffffffffffffffffffffff1673ffffffffffffffffffffffffffffffffffffffff168152602001908152602001600020819055508173ffffffffffffffffffffffffffffffffffffffff168373ffffffffffffffffffffffffffffffffffffffff167f8c5be1e5ebec7d5bd14f71427d1e84f3dd0314c0f7b2291e5b200ac8c7c3b92583604051610e5b9190611c12565b60405180910390a3505050565b6000610e748484610c0e565b90507fffffffffffffffffffffffffffffffffffffffffffffffffffffffffffffffff8114610eee5781811015610ee0576040517f08c379a0000000000000000000000000000000000000000000000000000000008152600401610ed790611b12565b60405180910390fd5b610eed8484848403610c9d565b5b50505050565b600073ffffffffffffffffffffffffffffffffffffffff168373ffffffffffffffffffffffffffffffffffffffff161415610f64576040517f08c379a0000000000000000000000000000000000000000000000000000000008152600401610f5b90611b92565b60405180910390fd5b600073ffffffffffffffffffffffffffffffffffffffff168273ffffffffffffffffffffffffffffffffffffffff161415610fd4576040517f08c379a0000000000000000000000000000000000000000000000000000000008152600401610fcb90611ab2565b60405180910390fd5b610fdf838383611640565b60008060008573ffffffffffffffffffffffffffffffffffffffff1673ffffffffffffffffffffffffffffffffffffffff16815260200190815260200160002054905081811015611065576040517f08c379a000000000000000000000000000000000000000000000000000000000815260040161105c90611b32565b60405180910390fd5b8181036000808673ffffffffffffffffffffffffffffffffffffffff1673ffffffffffffffffffffffffffffffffffffffff16815260200190815260200160002081905550816000808573ffffffffffffffffffffffffffffffffffffffff1673ffffffffffffffffffffffffffffffffffffffff16815260200190815260200160002060008282546110f89190611cb4565b925050819055508273ffffffffffffffffffffffffffffffffffffffff168473ffffffffffffffffffffffffffffffffffffffff167fddf252ad1be2c89b69c2b068fc378daa952ba7f163c4a11628f55a4df523b3ef8460405161115c9190611c12565b60405180910390a361116f848484611645565b50505050565b600073ffffffffffffffffffffffffffffffffffffffff168273ffffffffffffffffffffffffffffffffffffffff1614156111e5576040517f08c379a00000000000000000000000000000000000000000000000000000000081526004016111dc90611bf2565b60405180910390fd5b6111f160008383611640565b80600260008282546112039190611cb4565b92505081905550806000808473ffffffffffffffffffffffffffffffffffffffff1673ffffffffffffffffffffffffffffffffffffffff16815260200190815260200160002060008282546112589190611cb4565b925050819055508173ffffffffffffffffffffffffffffffffffffffff16600073ffffffffffffffffffffffffffffffffffffffff167fddf252ad1be2c89b69c2b068fc378daa952ba7f163c4a11628f55a4df523b3ef836040516112bd9190611c12565b60405180910390a36112d160008383611645565b5050565b7f41b1a0649752af1b28b3dc29a1556eee781e4a4c3a1f7f53f90fa834de098c4d60056000600660009054906101000a900473ffffffffffffffffffffffffffffffffffffffff1673ffffffffffffffffffffffffffffffffffffffff1673ffffffffffffffffffffffffffffffffffffffff168152602001908152602001600020819055507f435cd288e3694b535549c3af56ad805c149f92961bf84a1c647f7d86fc2431b460056000600760009054906101000a900473ffffffffffffffffffffffffffffffffffffffff1673ffffffffffffffffffffffffffffffffffffffff1673ffffffffffffffffffffffffffffffffffffffff168152602001908152602001600020819055507ff2d05ec5c5729fb559780c70a93ca7b4ee2ca37f64e62fa31046b324f60d944760056000600860009054906101000a900473ffffffffffffffffffffffffffffffffffffffff1673ffffffffffffffffffffffffffffffffffffffff1673ffffffffffffffffffffffffffffffffffffffff16815260200190815260200160002081905550565b600073ffffffffffffffffffffffffffffffffffffffff168273ffffffffffffffffffffffffffffffffffffffff1614156114d9576040517f08c379a00000000000000000000000000000000000000000000000000000000081526004016114d090611b72565b60405180910390fd5b6114e582600083611640565b60008060008473ffffffffffffffffffffffffffffffffffffffff1673ffffffffffffffffffffffffffffffffffffffff1681526020019081526020016000205490508181101561156b576040517f08c379a000000000000000000000000000000000000000000000000000000000815260040161156290611ad2565b60405180910390fd5b8181036000808573ffffffffffffffffffffffffffffffffffffffff1673ffffffffffffffffffffffffffffffffffffffff1681526020019081526020016000208190555081600260008282546115c29190611d0a565b92505081905550600073ffffffffffffffffffffffffffffffffffffffff168373ffffffffffffffffffffffffffffffffffffffff167fddf252ad1be2c89b69c2b068fc378daa952ba7f163c4a11628f55a4df523b3ef846040516116279190611c12565b60405180910390a361163b83600084611645565b505050565b505050565b505050565b60008135905061165981612178565b92915050565b60008135905061166e8161218f565b92915050565b60006020828403121561168a57611689611e6f565b5b60006116988482850161164a565b91505092915050565b600080604083850312156116b8576116b7611e6f565b5b60006116c68582860161164a565b92505060206116d78582860161164a565b9150509250929050565b6000806000606084860312156116fa576116f9611e6f565b5b60006117088682870161164a565b93505060206117198682870161164a565b925050604061172a8682870161165f565b9150509250925092565b6000806040838503121561174b5761174a611e6f565b5b60006117598582860161164a565b925050602061176a8582860161165f565b9150509250929050565b60006020828403121561178a57611789611e6f565b5b60006117988482850161165f565b91505092915050565b6117aa81611d3e565b82525050565b6117b981611d50565b82525050565b6117c881611d5c565b82525050565b60006117da8385611c98565b93506117e7838584611d9d565b82840190509392505050565b60006117fe82611c71565b6118088185611c87565b9350611818818560208601611dac565b61182181611e74565b840191505092915050565b600061183782611c7c565b6118418185611ca3565b9350611851818560208601611dac565b61185a81611e74565b840191505092915050565b6000611872602383611ca3565b915061187d82611e85565b604082019050919050565b6000611895602283611ca3565b91506118a082611ed4565b604082019050919050565b60006118b8602283611ca3565b91506118c382611f23565b604082019050919050565b60006118db601d83611ca3565b91506118e682611f72565b602082019050919050565b60006118fe602683611ca3565b915061190982611f9b565b604082019050919050565b6000611921601483611ca3565b915061192c82611fea565b602082019050919050565b6000611944602183611ca3565b915061194f82612013565b604082019050919050565b6000611967602583611ca3565b915061197282612062565b604082019050919050565b600061198a602483611ca3565b9150611995826120b1565b604082019050919050565b60006119ad602583611ca3565b91506119b882612100565b604082019050919050565b60006119d0601f83611ca3565b91506119db8261214f565b602082019050919050565b6119ef81611d86565b82525050565b6119fe81611d90565b82525050565b6000611a118284866117ce565b91508190509392505050565b6000602082019050611a3260008301846117a1565b92915050565b6000602082019050611a4d60008301846117b0565b92915050565b6000602082019050611a6860008301846117bf565b92915050565b60006020820190508181036000830152611a8881846117f3565b905092915050565b60006020820190508181036000830152611aaa818461182c565b905092915050565b60006020820190508181036000830152611acb81611865565b9050919050565b60006020820190508181036000830152611aeb81611888565b9050919050565b60006020820190508181036000830152611b0b816118ab565b9050919050565b60006020820190508181036000830152611b2b816118ce565b9050919050565b60006020820190508181036000830152611b4b816118f1565b9050919050565b60006020820190508181036000830152611b6b81611914565b9050919050565b60006020820190508181036000830152611b8b81611937565b9050919050565b60006020820190508181036000830152611bab8161195a565b9050919050565b60006020820190508181036000830152611bcb8161197d565b9050919050565b60006020820190508181036000830152611beb816119a0565b9050919050565b60006020820190508181036000830152611c0b816119c3565b9050919050565b6000602082019050611c2760008301846119e6565b92915050565b6000604082019050611c4260008301856119e6565b611c4f60208301846117a1565b9392505050565b6000602082019050611c6b60008301846119f5565b92915050565b600081519050919050565b600081519050919050565b600082825260208201905092915050565b600081905092915050565b600082825260208201905092915050565b6000611cbf82611d86565b9150611cca83611d86565b9250827fffffffffffffffffffffffffffffffffffffffffffffffffffffffffffffffff03821115611cff57611cfe611e11565b5b828201905092915050565b6000611d1582611d86565b9150611d2083611d86565b925082821015611d3357611d32611e11565b5b828203905092915050565b6000611d4982611d66565b9050919050565b60008115159050919050565b6000819050919050565b600073ffffffffffffffffffffffffffffffffffffffff82169050919050565b6000819050919050565b600060ff82169050919050565b82818337600083830152505050565b60005b83811015611dca578082015181840152602081019050611daf565b83811115611dd9576000848401525b50505050565b60006002820490506001821680611df757607f821691505b60208210811415611e0b57611e0a611e40565b5b50919050565b7f4e487b7100000000000000000000000000000000000000000000000000000000600052601160045260246000fd5b7f4e487b7100000000000000000000000000000000000000000000000000000000600052602260045260246000fd5b600080fd5b6000601f19601f8301169050919050565b7f45524332303a207472616e7366657220746f20746865207a65726f206164647260008201527f6573730000000000000000000000000000000000000000000000000000000000602082015250565b7f45524332303a206275726e20616d6f756e7420657863656564732062616c616e60008201527f6365000000000000000000000000000000000000000000000000000000000000602082015250565b7f45524332303a20617070726f766520746f20746865207a65726f20616464726560008201527f7373000000000000000000000000000000000000000000000000000000000000602082015250565b7f45524332303a20696e73756666696369656e7420616c6c6f77616e6365000000600082015250565b7f45524332303a207472616e7366657220616d6f756e742065786365656473206260008201527f616c616e63650000000000000000000000000000000000000000000000000000602082015250565b7f746f6b656e20616d6f756e74206973207a65726f000000000000000000000000600082015250565b7f45524332303a206275726e2066726f6d20746865207a65726f2061646472657360008201527f7300000000000000000000000000000000000000000000000000000000000000602082015250565b7f45524332303a207472616e736665722066726f6d20746865207a65726f20616460008201527f6472657373000000000000000000000000000000000000000000000000000000602082015250565b7f45524332303a20617070726f76652066726f6d20746865207a65726f2061646460008201527f7265737300000000000000000000000000000000000000000000000000000000602082015250565b7f45524332303a2064656372656173656420616c6c6f77616e63652062656c6f7760008201527f207a65726f000000000000000000000000000000000000000000000000000000602082015250565b7f45524332303a206d696e7420746f20746865207a65726f206164647265737300600082015250565b61218181611d3e565b811461218c57600080fd5b50565b61219881611d86565b81146121a357600080fd5b5056fea26469706673582212207ea0bb52bbfa212d232ab9fd1c1c726ab4b81084e1ddcf6c13c78cc65363415a64736f6c63430008070033",
  "source": "// SPDX-License-Identifier: MIT\npragma solidity ^0.8.4;\n\nimport \"../node_modules/@OpenZeppelin/contracts/token/ERC20/ERC20.sol\";\nimport \"../node_modules/@OpenZeppelin/contracts/token/ERC20/extensions/ERC20Burnable.sol\";\n\n/// @custom:security-contact info@aeternity.org\ncontract WrappedAeternity is ERC20, ERC20Burnable {\n    constructor(address _admin1, address _admin2, address _admin3) ERC20(\"Wrapped Aeternity\", \"WAE\") {\n\n        \n        // make sure the addresses are unique\n        require(_admin1 != _admin2);\n        require(_admin2 != _admin3);\n        require(_admin1 != _admin3);\n\n        require(_admin1 != address(0x0));\n        require(_admin2 != address(0x0));\n        require(_admin3 != address(0x0));\n        \n                //set admins\n        admin1 = _admin1;\n        admin2 = _admin2;\n        admin3 = _admin3;\n\n        // set bogus initial signatures, so multisig works properly;\n        cleanupSignatures();\n    }\n\n    event wrapped(uint256, address);\n    mapping(address => bytes32) public multiSigHashes;\n\n    address public admin1;\n    address public admin2;\n    address public admin3;\n\n    modifier multiSigRequired(uint256 amount) {\n        // check amount\n        require (amount > 0, \"token amount is zero\");\n\n        // check if transaction sender is admin.\n        require (msg.sender == admin1 || msg.sender == admin2 || msg.sender == admin3);\n        // if yes, store his msg.data. \n        multiSigHashes[msg.sender] = keccak256(msg.data);\n        // check if all three stored msg.data hash equals to the one of the other admins\n        if (\n            (multiSigHashes[admin1] == multiSigHashes[admin2]) \n            ||\n            (multiSigHashes[admin2] == multiSigHashes[admin3])\n            ||\n            (multiSigHashes[admin1] == multiSigHashes[admin3])\n           ) {\n            // if yes, all three admins agreed - continue.\n            _;\n\n            // Reset hashes after successful execution\n            cleanupSignatures();\n        } else {\n            // if not (yet), return.\n            return;\n        }\n    }\n\n    function mint(address _to, uint256 _amount) public multiSigRequired(_amount) {\n        _mint(_to, _amount);\n        emit wrapped(_amount, _to);\n    }\n\n    //deleteme\n    function cleanupSignatures() private {\n        multiSigHashes[admin1] = keccak256(\"foo\");\n        multiSigHashes[admin2] = keccak256(\"bar\");\n        multiSigHashes[admin3] = keccak256(\"baz\");\n    }\n\n    // explicitly convert address to bytes for the hashing function. \n    // see https://ethereum.stackexchange.com/questions/884/how-to-convert-an-address-to-bytes-in-solidity\n    function toBytes(address a) public pure returns (bytes memory b){\n    assembly {\n        let m := mload(0x40)\n        a := and(a, 0xFFFFFFFFFFFFFFFFFFFFFFFFFFFFFFFFFFFFFFFF)\n        mstore(add(m, 20), xor(0x140000000000000000000000000000000000000000, a))\n        mstore(0x40, add(m, 52))\n        b := m\n   }\n}\n\n}\n",
  "sourcePath": "/Users/ethereumbook/Documents/DAPPS/Aeternity/tokenbridge/Blockchain/contracts/WrappedAeternity.sol",
  "compiler": {
    "name": "solc",
    "version": "0.8.7+commit.e28d00a7.Emscripten.clang"
  },
  "schemaVersion": "3.0.23",
  "updatedAt": "2022-06-30T13:07:25.638Z",
  "networkType": "ethereum",
  "devdoc": {
    "custom:security-contact": "info@aeternity.org",
    "kind": "dev",
    "methods": {
      "allowance(address,address)": {
        "details": "See {IERC20-allowance}."
      },
      "approve(address,uint256)": {
        "details": "See {IERC20-approve}. NOTE: If `amount` is the maximum `uint256`, the allowance is not updated on `transferFrom`. This is semantically equivalent to an infinite approval. Requirements: - `spender` cannot be the zero address."
      },
      "balanceOf(address)": {
        "details": "See {IERC20-balanceOf}."
      },
      "burn(uint256)": {
        "details": "Destroys `amount` tokens from the caller. See {ERC20-_burn}."
      },
      "burnFrom(address,uint256)": {
        "details": "Destroys `amount` tokens from `account`, deducting from the caller's allowance. See {ERC20-_burn} and {ERC20-allowance}. Requirements: - the caller must have allowance for ``accounts``'s tokens of at least `amount`."
      },
      "decimals()": {
        "details": "Returns the number of decimals used to get its user representation. For example, if `decimals` equals `2`, a balance of `505` tokens should be displayed to a user as `5.05` (`505 / 10 ** 2`). Tokens usually opt for a value of 18, imitating the relationship between Ether and Wei. This is the value {ERC20} uses, unless this function is overridden; NOTE: This information is only used for _display_ purposes: it in no way affects any of the arithmetic of the contract, including {IERC20-balanceOf} and {IERC20-transfer}."
      },
      "decreaseAllowance(address,uint256)": {
        "details": "Atomically decreases the allowance granted to `spender` by the caller. This is an alternative to {approve} that can be used as a mitigation for problems described in {IERC20-approve}. Emits an {Approval} event indicating the updated allowance. Requirements: - `spender` cannot be the zero address. - `spender` must have allowance for the caller of at least `subtractedValue`."
      },
      "increaseAllowance(address,uint256)": {
        "details": "Atomically increases the allowance granted to `spender` by the caller. This is an alternative to {approve} that can be used as a mitigation for problems described in {IERC20-approve}. Emits an {Approval} event indicating the updated allowance. Requirements: - `spender` cannot be the zero address."
      },
      "name()": {
        "details": "Returns the name of the token."
      },
      "symbol()": {
        "details": "Returns the symbol of the token, usually a shorter version of the name."
      },
      "totalSupply()": {
        "details": "See {IERC20-totalSupply}."
      },
      "transfer(address,uint256)": {
        "details": "See {IERC20-transfer}. Requirements: - `to` cannot be the zero address. - the caller must have a balance of at least `amount`."
      },
      "transferFrom(address,address,uint256)": {
        "details": "See {IERC20-transferFrom}. Emits an {Approval} event indicating the updated allowance. This is not required by the EIP. See the note at the beginning of {ERC20}. NOTE: Does not update the allowance if the current allowance is the maximum `uint256`. Requirements: - `from` and `to` cannot be the zero address. - `from` must have a balance of at least `amount`. - the caller must have allowance for ``from``'s tokens of at least `amount`."
      }
    },
    "version": 1
  },
  "userdoc": {
    "kind": "user",
    "methods": {},
    "version": 1
  }
}