{
  "contractName": "WrappedAeternity",
  "abi": [
    {
      "inputs": [
        {
          "internalType": "address",
          "name": "_admin1",
          "type": "address"
        },
        {
          "internalType": "address",
          "name": "_admin2",
          "type": "address"
        },
        {
          "internalType": "address",
          "name": "_admin3",
          "type": "address"
        },
        {
          "internalType": "address",
          "name": "_admin4",
          "type": "address"
        }
      ],
      "stateMutability": "nonpayable",
      "type": "constructor"
    },
    {
      "anonymous": false,
      "inputs": [
        {
          "indexed": true,
          "internalType": "address",
          "name": "owner",
          "type": "address"
        },
        {
          "indexed": true,
          "internalType": "address",
          "name": "spender",
          "type": "address"
        },
        {
          "indexed": false,
          "internalType": "uint256",
          "name": "value",
          "type": "uint256"
        }
      ],
      "name": "Approval",
      "type": "event"
    },
    {
      "anonymous": false,
      "inputs": [
        {
          "indexed": true,
          "internalType": "address",
          "name": "from",
          "type": "address"
        },
        {
          "indexed": true,
          "internalType": "address",
          "name": "to",
          "type": "address"
        },
        {
          "indexed": false,
          "internalType": "uint256",
          "name": "value",
          "type": "uint256"
        }
      ],
      "name": "Transfer",
      "type": "event"
    },
    {
      "anonymous": false,
      "inputs": [
        {
          "indexed": false,
          "internalType": "uint256",
          "name": "",
          "type": "uint256"
        },
        {
          "indexed": false,
          "internalType": "address",
          "name": "",
          "type": "address"
        }
      ],
      "name": "wrapped",
      "type": "event"
    },
    {
      "inputs": [],
      "name": "admin1",
      "outputs": [
        {
          "internalType": "address",
          "name": "",
          "type": "address"
        }
      ],
      "stateMutability": "view",
      "type": "function",
      "constant": true
    },
    {
      "inputs": [],
      "name": "admin2",
      "outputs": [
        {
          "internalType": "address",
          "name": "",
          "type": "address"
        }
      ],
      "stateMutability": "view",
      "type": "function",
      "constant": true
    },
    {
      "inputs": [],
      "name": "admin3",
      "outputs": [
        {
          "internalType": "address",
          "name": "",
          "type": "address"
        }
      ],
      "stateMutability": "view",
      "type": "function",
      "constant": true
    },
    {
      "inputs": [],
      "name": "admin4",
      "outputs": [
        {
          "internalType": "address",
          "name": "",
          "type": "address"
        }
      ],
      "stateMutability": "view",
      "type": "function",
      "constant": true
    },
    {
      "inputs": [
        {
          "internalType": "address",
          "name": "owner",
          "type": "address"
        },
        {
          "internalType": "address",
          "name": "spender",
          "type": "address"
        }
      ],
      "name": "allowance",
      "outputs": [
        {
          "internalType": "uint256",
          "name": "",
          "type": "uint256"
        }
      ],
      "stateMutability": "view",
      "type": "function",
      "constant": true
    },
    {
      "inputs": [
        {
          "internalType": "address",
          "name": "spender",
          "type": "address"
        },
        {
          "internalType": "uint256",
          "name": "amount",
          "type": "uint256"
        }
      ],
      "name": "approve",
      "outputs": [
        {
          "internalType": "bool",
          "name": "",
          "type": "bool"
        }
      ],
      "stateMutability": "nonpayable",
      "type": "function"
    },
    {
      "inputs": [
        {
          "internalType": "address",
          "name": "account",
          "type": "address"
        }
      ],
      "name": "balanceOf",
      "outputs": [
        {
          "internalType": "uint256",
          "name": "",
          "type": "uint256"
        }
      ],
      "stateMutability": "view",
      "type": "function",
      "constant": true
    },
    {
      "inputs": [
        {
          "internalType": "uint256",
          "name": "amount",
          "type": "uint256"
        }
      ],
      "name": "burn",
      "outputs": [],
      "stateMutability": "nonpayable",
      "type": "function"
    },
    {
      "inputs": [
        {
          "internalType": "address",
          "name": "account",
          "type": "address"
        },
        {
          "internalType": "uint256",
          "name": "amount",
          "type": "uint256"
        }
      ],
      "name": "burnFrom",
      "outputs": [],
      "stateMutability": "nonpayable",
      "type": "function"
    },
    {
      "inputs": [],
      "name": "decimals",
      "outputs": [
        {
          "internalType": "uint8",
          "name": "",
          "type": "uint8"
        }
      ],
      "stateMutability": "view",
      "type": "function",
      "constant": true
    },
    {
      "inputs": [
        {
          "internalType": "address",
          "name": "spender",
          "type": "address"
        },
        {
          "internalType": "uint256",
          "name": "subtractedValue",
          "type": "uint256"
        }
      ],
      "name": "decreaseAllowance",
      "outputs": [
        {
          "internalType": "bool",
          "name": "",
          "type": "bool"
        }
      ],
      "stateMutability": "nonpayable",
      "type": "function"
    },
    {
      "inputs": [
        {
          "internalType": "address",
          "name": "spender",
          "type": "address"
        },
        {
          "internalType": "uint256",
          "name": "addedValue",
          "type": "uint256"
        }
      ],
      "name": "increaseAllowance",
      "outputs": [
        {
          "internalType": "bool",
          "name": "",
          "type": "bool"
        }
      ],
      "stateMutability": "nonpayable",
      "type": "function"
    },
    {
      "inputs": [
        {
          "internalType": "address",
          "name": "",
          "type": "address"
        }
      ],
      "name": "multiSigHashes",
      "outputs": [
        {
          "internalType": "bytes32",
          "name": "",
          "type": "bytes32"
        }
      ],
      "stateMutability": "view",
      "type": "function",
      "constant": true
    },
    {
      "inputs": [],
      "name": "name",
      "outputs": [
        {
          "internalType": "string",
          "name": "",
          "type": "string"
        }
      ],
      "stateMutability": "view",
      "type": "function",
      "constant": true
    },
    {
      "inputs": [],
      "name": "symbol",
      "outputs": [
        {
          "internalType": "string",
          "name": "",
          "type": "string"
        }
      ],
      "stateMutability": "view",
      "type": "function",
      "constant": true
    },
    {
      "inputs": [],
      "name": "totalSupply",
      "outputs": [
        {
          "internalType": "uint256",
          "name": "",
          "type": "uint256"
        }
      ],
      "stateMutability": "view",
      "type": "function",
      "constant": true
    },
    {
      "inputs": [
        {
          "internalType": "address",
          "name": "to",
          "type": "address"
        },
        {
          "internalType": "uint256",
          "name": "amount",
          "type": "uint256"
        }
      ],
      "name": "transfer",
      "outputs": [
        {
          "internalType": "bool",
          "name": "",
          "type": "bool"
        }
      ],
      "stateMutability": "nonpayable",
      "type": "function"
    },
    {
      "inputs": [
        {
          "internalType": "address",
          "name": "from",
          "type": "address"
        },
        {
          "internalType": "address",
          "name": "to",
          "type": "address"
        },
        {
          "internalType": "uint256",
          "name": "amount",
          "type": "uint256"
        }
      ],
      "name": "transferFrom",
      "outputs": [
        {
          "internalType": "bool",
          "name": "",
          "type": "bool"
        }
      ],
      "stateMutability": "nonpayable",
      "type": "function"
    },
    {
      "inputs": [
        {
          "internalType": "address",
          "name": "_to",
          "type": "address"
        },
        {
          "internalType": "uint256",
          "name": "_amount",
          "type": "uint256"
        }
      ],
      "name": "mint",
      "outputs": [],
      "stateMutability": "nonpayable",
      "type": "function"
    },
    {
      "inputs": [
        {
          "internalType": "address",
          "name": "a",
          "type": "address"
        }
      ],
      "name": "toBytes",
      "outputs": [
        {
          "internalType": "bytes",
          "name": "b",
          "type": "bytes"
        }
      ],
      "stateMutability": "pure",
      "type": "function",
      "constant": true
    }
  ],
  "bytecode": "0x60806040523480156200001157600080fd5b5060405162002d5138038062002d518339818101604052810190620000379190620006aa565b6040518060400160405280601181526020017f577261707065642041657465726e6974790000000000000000000000000000008152506040518060400160405280600381526020017f57414500000000000000000000000000000000000000000000000000000000008152508160039080519060200190620000bb929190620005e3565b508060049080519060200190620000d4929190620005e3565b5050508273ffffffffffffffffffffffffffffffffffffffff168473ffffffffffffffffffffffffffffffffffffffff1614156200011157600080fd5b8173ffffffffffffffffffffffffffffffffffffffff168373ffffffffffffffffffffffffffffffffffffffff1614156200014b57600080fd5b8173ffffffffffffffffffffffffffffffffffffffff168473ffffffffffffffffffffffffffffffffffffffff1614156200018557600080fd5b8073ffffffffffffffffffffffffffffffffffffffff168473ffffffffffffffffffffffffffffffffffffffff161415620001bf57600080fd5b600073ffffffffffffffffffffffffffffffffffffffff168473ffffffffffffffffffffffffffffffffffffffff161415620001fa57600080fd5b600073ffffffffffffffffffffffffffffffffffffffff168373ffffffffffffffffffffffffffffffffffffffff1614156200023557600080fd5b600073ffffffffffffffffffffffffffffffffffffffff168273ffffffffffffffffffffffffffffffffffffffff1614156200027057600080fd5b600073ffffffffffffffffffffffffffffffffffffffff168173ffffffffffffffffffffffffffffffffffffffff161415620002ab57600080fd5b83600660006101000a81548173ffffffffffffffffffffffffffffffffffffffff021916908373ffffffffffffffffffffffffffffffffffffffff16021790555082600760006101000a81548173ffffffffffffffffffffffffffffffffffffffff021916908373ffffffffffffffffffffffffffffffffffffffff16021790555081600860006101000a81548173ffffffffffffffffffffffffffffffffffffffff021916908373ffffffffffffffffffffffffffffffffffffffff16021790555080600960006101000a81548173ffffffffffffffffffffffffffffffffffffffff021916908373ffffffffffffffffffffffffffffffffffffffff160217905550620003bf620003c960201b60201c565b50505050620007d4565b7f41b1a0649752af1b28b3dc29a1556eee781e4a4c3a1f7f53f90fa834de098c4d60056000600660009054906101000a900473ffffffffffffffffffffffffffffffffffffffff1673ffffffffffffffffffffffffffffffffffffffff1673ffffffffffffffffffffffffffffffffffffffff168152602001908152602001600020819055507f435cd288e3694b535549c3af56ad805c149f92961bf84a1c647f7d86fc2431b460056000600760009054906101000a900473ffffffffffffffffffffffffffffffffffffffff1673ffffffffffffffffffffffffffffffffffffffff1673ffffffffffffffffffffffffffffffffffffffff168152602001908152602001600020819055507ff2d05ec5c5729fb559780c70a93ca7b4ee2ca37f64e62fa31046b324f60d944760056000600860009054906101000a900473ffffffffffffffffffffffffffffffffffffffff1673ffffffffffffffffffffffffffffffffffffffff1673ffffffffffffffffffffffffffffffffffffffff168152602001908152602001600020819055507f997997d543f68c7b77e62a13efc6e546bd2a81c2aa8769c3354422ebbbb4fba460056000600960009054906101000a900473ffffffffffffffffffffffffffffffffffffffff1673ffffffffffffffffffffffffffffffffffffffff1673ffffffffffffffffffffffffffffffffffffffff16815260200190815260200160002081905550565b828054620005f19062000750565b90600052602060002090601f01602090048101928262000615576000855562000661565b82601f106200063057805160ff191683800117855562000661565b8280016001018555821562000661579182015b828111156200066057825182559160200191906001019062000643565b5b50905062000670919062000674565b5090565b5b808211156200068f57600081600090555060010162000675565b5090565b600081519050620006a481620007ba565b92915050565b60008060008060808587031215620006c757620006c6620007b5565b5b6000620006d78782880162000693565b9450506020620006ea8782880162000693565b9350506040620006fd8782880162000693565b9250506060620007108782880162000693565b91505092959194509250565b6000620007298262000730565b9050919050565b600073ffffffffffffffffffffffffffffffffffffffff82169050919050565b600060028204905060018216806200076957607f821691505b6020821081141562000780576200077f62000786565b5b50919050565b7f4e487b7100000000000000000000000000000000000000000000000000000000600052602260045260246000fd5b600080fd5b620007c5816200071c565b8114620007d157600080fd5b50565b61256d80620007e46000396000f3fe608060405234801561001057600080fd5b506004361061012c5760003560e01c806340c10f19116100ad57806379cc67901161007157806379cc67901461035b57806395d89b4114610377578063a457c2d714610395578063a9059cbb146103c5578063dd62ed3e146103f55761012c565b806340c10f191461029357806342966c68146102af578063593b79fe146102cb57806370830912146102fb57806370a082311461032b5761012c565b80631de46a78116100f45780631de46a78146101d957806323b872dd146101f75780632b0c685a14610227578063313ce5671461024557806339509351146102635761012c565b806306a8f8a21461013157806306fdde031461014f578063095ea7b31461016d578063115976c41461019d57806318160ddd146101bb575b600080fd5b610139610425565b6040516101469190611dae565b60405180910390f35b61015761044b565b6040516101649190611e21565b60405180910390f35b61018760048036038101906101829190611ac5565b6104dd565b6040516101949190611dc9565b60405180910390f35b6101a5610500565b6040516101b29190611dae565b60405180910390f35b6101c3610526565b6040516101d09190611fa3565b60405180910390f35b6101e1610530565b6040516101ee9190611dae565b60405180910390f35b610211600480360381019061020c9190611a72565b610556565b60405161021e9190611dc9565b60405180910390f35b61022f610585565b60405161023c9190611dae565b60405180910390f35b61024d6105ab565b60405161025a9190611fe7565b60405180910390f35b61027d60048036038101906102789190611ac5565b6105b4565b60405161028a9190611dc9565b60405180910390f35b6102ad60048036038101906102a89190611ac5565b6105eb565b005b6102c960048036038101906102c49190611b05565b610d0e565b005b6102e560048036038101906102e09190611a05565b610d22565b6040516102f29190611dff565b60405180910390f35b61031560048036038101906103109190611a05565b610d6d565b6040516103229190611de4565b60405180910390f35b61034560048036038101906103409190611a05565b610d85565b6040516103529190611fa3565b60405180910390f35b61037560048036038101906103709190611ac5565b610dcd565b005b61037f610ded565b60405161038c9190611e21565b60405180910390f35b6103af60048036038101906103aa9190611ac5565b610e7f565b6040516103bc9190611dc9565b60405180910390f35b6103df60048036038101906103da9190611ac5565b610ef6565b6040516103ec9190611dc9565b60405180910390f35b61040f600480360381019061040a9190611a32565b610f19565b60405161041c9190611fa3565b60405180910390f35b600760009054906101000a900473ffffffffffffffffffffffffffffffffffffffff1681565b60606003805461045a90612170565b80601f016020809104026020016040519081016040528092919081815260200182805461048690612170565b80156104d35780601f106104a8576101008083540402835291602001916104d3565b820191906000526020600020905b8154815290600101906020018083116104b657829003601f168201915b5050505050905090565b6000806104e8610fa0565b90506104f5818585610fa8565b600191505092915050565b600660009054906101000a900473ffffffffffffffffffffffffffffffffffffffff1681565b6000600254905090565b600860009054906101000a900473ffffffffffffffffffffffffffffffffffffffff1681565b600080610561610fa0565b905061056e858285611173565b6105798585856111ff565b60019150509392505050565b600960009054906101000a900473ffffffffffffffffffffffffffffffffffffffff1681565b60006012905090565b6000806105bf610fa0565b90506105e08185856105d18589610f19565b6105db9190612045565b610fa8565b600191505092915050565b806000811161062f576040517f08c379a000000000000000000000000000000000000000000000000000000000815260040161062690611ee3565b60405180910390fd5b600660009054906101000a900473ffffffffffffffffffffffffffffffffffffffff1673ffffffffffffffffffffffffffffffffffffffff163373ffffffffffffffffffffffffffffffffffffffff1614806106d85750600760009054906101000a900473ffffffffffffffffffffffffffffffffffffffff1673ffffffffffffffffffffffffffffffffffffffff163373ffffffffffffffffffffffffffffffffffffffff16145b806107305750600860009054906101000a900473ffffffffffffffffffffffffffffffffffffffff1673ffffffffffffffffffffffffffffffffffffffff163373ffffffffffffffffffffffffffffffffffffffff16145b806107885750600960009054906101000a900473ffffffffffffffffffffffffffffffffffffffff1673ffffffffffffffffffffffffffffffffffffffff163373ffffffffffffffffffffffffffffffffffffffff16145b61079157600080fd5b6000366040516107a2929190611d95565b6040518091039020600560003373ffffffffffffffffffffffffffffffffffffffff1673ffffffffffffffffffffffffffffffffffffffff1681526020019081526020016000208190555060056000600760009054906101000a900473ffffffffffffffffffffffffffffffffffffffff1673ffffffffffffffffffffffffffffffffffffffff1673ffffffffffffffffffffffffffffffffffffffff1681526020019081526020016000205460056000600660009054906101000a900473ffffffffffffffffffffffffffffffffffffffff1673ffffffffffffffffffffffffffffffffffffffff1673ffffffffffffffffffffffffffffffffffffffff16815260200190815260200160002054148061097e575060056000600860009054906101000a900473ffffffffffffffffffffffffffffffffffffffff1673ffffffffffffffffffffffffffffffffffffffff1673ffffffffffffffffffffffffffffffffffffffff1681526020019081526020016000205460056000600660009054906101000a900473ffffffffffffffffffffffffffffffffffffffff1673ffffffffffffffffffffffffffffffffffffffff1673ffffffffffffffffffffffffffffffffffffffff16815260200190815260200160002054145b80610a4a575060056000600960009054906101000a900473ffffffffffffffffffffffffffffffffffffffff1673ffffffffffffffffffffffffffffffffffffffff1673ffffffffffffffffffffffffffffffffffffffff1681526020019081526020016000205460056000600660009054906101000a900473ffffffffffffffffffffffffffffffffffffffff1673ffffffffffffffffffffffffffffffffffffffff1673ffffffffffffffffffffffffffffffffffffffff16815260200190815260200160002054145b80610b16575060056000600860009054906101000a900473ffffffffffffffffffffffffffffffffffffffff1673ffffffffffffffffffffffffffffffffffffffff1673ffffffffffffffffffffffffffffffffffffffff1681526020019081526020016000205460056000600760009054906101000a900473ffffffffffffffffffffffffffffffffffffffff1673ffffffffffffffffffffffffffffffffffffffff1673ffffffffffffffffffffffffffffffffffffffff16815260200190815260200160002054145b80610be2575060056000600960009054906101000a900473ffffffffffffffffffffffffffffffffffffffff1673ffffffffffffffffffffffffffffffffffffffff1673ffffffffffffffffffffffffffffffffffffffff1681526020019081526020016000205460056000600760009054906101000a900473ffffffffffffffffffffffffffffffffffffffff1673ffffffffffffffffffffffffffffffffffffffff1673ffffffffffffffffffffffffffffffffffffffff16815260200190815260200160002054145b80610cae575060056000600960009054906101000a900473ffffffffffffffffffffffffffffffffffffffff1673ffffffffffffffffffffffffffffffffffffffff1673ffffffffffffffffffffffffffffffffffffffff1681526020019081526020016000205460056000600860009054906101000a900473ffffffffffffffffffffffffffffffffffffffff1673ffffffffffffffffffffffffffffffffffffffff1673ffffffffffffffffffffffffffffffffffffffff16815260200190815260200160002054145b15610d0357610cbd8383611480565b7f271997f837364560071e880b9d8089692f834b3771878c7b1cd5eea1d2ca51768284604051610cee929190611fbe565b60405180910390a1610cfe6115e0565b610d08565b610d09565b5b505050565b610d1f610d19610fa0565b826117fa565b50565b606060405173ffffffffffffffffffffffffffffffffffffffff8316925082741400000000000000000000000000000000000000001860148201526034810160405280915050919050565b60056020528060005260406000206000915090505481565b60008060008373ffffffffffffffffffffffffffffffffffffffff1673ffffffffffffffffffffffffffffffffffffffff168152602001908152602001600020549050919050565b610ddf82610dd9610fa0565b83611173565b610de982826117fa565b5050565b606060048054610dfc90612170565b80601f0160208091040260200160405190810160405280929190818152602001828054610e2890612170565b8015610e755780601f10610e4a57610100808354040283529160200191610e75565b820191906000526020600020905b815481529060010190602001808311610e5857829003601f168201915b5050505050905090565b600080610e8a610fa0565b90506000610e988286610f19565b905083811015610edd576040517f08c379a0000000000000000000000000000000000000000000000000000000008152600401610ed490611f63565b60405180910390fd5b610eea8286868403610fa8565b60019250505092915050565b600080610f01610fa0565b9050610f0e8185856111ff565b600191505092915050565b6000600160008473ffffffffffffffffffffffffffffffffffffffff1673ffffffffffffffffffffffffffffffffffffffff16815260200190815260200160002060008373ffffffffffffffffffffffffffffffffffffffff1673ffffffffffffffffffffffffffffffffffffffff16815260200190815260200160002054905092915050565b600033905090565b600073ffffffffffffffffffffffffffffffffffffffff168373ffffffffffffffffffffffffffffffffffffffff161415611018576040517f08c379a000000000000000000000000000000000000000000000000000000000815260040161100f90611f43565b60405180910390fd5b600073ffffffffffffffffffffffffffffffffffffffff168273ffffffffffffffffffffffffffffffffffffffff161415611088576040517f08c379a000000000000000000000000000000000000000000000000000000000815260040161107f90611e83565b60405180910390fd5b80600160008573ffffffffffffffffffffffffffffffffffffffff1673ffffffffffffffffffffffffffffffffffffffff16815260200190815260200160002060008473ffffffffffffffffffffffffffffffffffffffff1673ffffffffffffffffffffffffffffffffffffffff168152602001908152602001600020819055508173ffffffffffffffffffffffffffffffffffffffff168373ffffffffffffffffffffffffffffffffffffffff167f8c5be1e5ebec7d5bd14f71427d1e84f3dd0314c0f7b2291e5b200ac8c7c3b925836040516111669190611fa3565b60405180910390a3505050565b600061117f8484610f19565b90507fffffffffffffffffffffffffffffffffffffffffffffffffffffffffffffffff81146111f957818110156111eb576040517f08c379a00000000000000000000000000000000000000000000000000000000081526004016111e290611ea3565b60405180910390fd5b6111f88484848403610fa8565b5b50505050565b600073ffffffffffffffffffffffffffffffffffffffff168373ffffffffffffffffffffffffffffffffffffffff16141561126f576040517f08c379a000000000000000000000000000000000000000000000000000000000815260040161126690611f23565b60405180910390fd5b600073ffffffffffffffffffffffffffffffffffffffff168273ffffffffffffffffffffffffffffffffffffffff1614156112df576040517f08c379a00000000000000000000000000000000000000000000000000000000081526004016112d690611e43565b60405180910390fd5b6112ea8383836119d1565b60008060008573ffffffffffffffffffffffffffffffffffffffff1673ffffffffffffffffffffffffffffffffffffffff16815260200190815260200160002054905081811015611370576040517f08c379a000000000000000000000000000000000000000000000000000000000815260040161136790611ec3565b60405180910390fd5b8181036000808673ffffffffffffffffffffffffffffffffffffffff1673ffffffffffffffffffffffffffffffffffffffff16815260200190815260200160002081905550816000808573ffffffffffffffffffffffffffffffffffffffff1673ffffffffffffffffffffffffffffffffffffffff16815260200190815260200160002060008282546114039190612045565b925050819055508273ffffffffffffffffffffffffffffffffffffffff168473ffffffffffffffffffffffffffffffffffffffff167fddf252ad1be2c89b69c2b068fc378daa952ba7f163c4a11628f55a4df523b3ef846040516114679190611fa3565b60405180910390a361147a8484846119d6565b50505050565b600073ffffffffffffffffffffffffffffffffffffffff168273ffffffffffffffffffffffffffffffffffffffff1614156114f0576040517f08c379a00000000000000000000000000000000000000000000000000000000081526004016114e790611f83565b60405180910390fd5b6114fc600083836119d1565b806002600082825461150e9190612045565b92505081905550806000808473ffffffffffffffffffffffffffffffffffffffff1673ffffffffffffffffffffffffffffffffffffffff16815260200190815260200160002060008282546115639190612045565b925050819055508173ffffffffffffffffffffffffffffffffffffffff16600073ffffffffffffffffffffffffffffffffffffffff167fddf252ad1be2c89b69c2b068fc378daa952ba7f163c4a11628f55a4df523b3ef836040516115c89190611fa3565b60405180910390a36115dc600083836119d6565b5050565b7f41b1a0649752af1b28b3dc29a1556eee781e4a4c3a1f7f53f90fa834de098c4d60056000600660009054906101000a900473ffffffffffffffffffffffffffffffffffffffff1673ffffffffffffffffffffffffffffffffffffffff1673ffffffffffffffffffffffffffffffffffffffff168152602001908152602001600020819055507f435cd288e3694b535549c3af56ad805c149f92961bf84a1c647f7d86fc2431b460056000600760009054906101000a900473ffffffffffffffffffffffffffffffffffffffff1673ffffffffffffffffffffffffffffffffffffffff1673ffffffffffffffffffffffffffffffffffffffff168152602001908152602001600020819055507ff2d05ec5c5729fb559780c70a93ca7b4ee2ca37f64e62fa31046b324f60d944760056000600860009054906101000a900473ffffffffffffffffffffffffffffffffffffffff1673ffffffffffffffffffffffffffffffffffffffff1673ffffffffffffffffffffffffffffffffffffffff168152602001908152602001600020819055507f997997d543f68c7b77e62a13efc6e546bd2a81c2aa8769c3354422ebbbb4fba460056000600960009054906101000a900473ffffffffffffffffffffffffffffffffffffffff1673ffffffffffffffffffffffffffffffffffffffff1673ffffffffffffffffffffffffffffffffffffffff16815260200190815260200160002081905550565b600073ffffffffffffffffffffffffffffffffffffffff168273ffffffffffffffffffffffffffffffffffffffff16141561186a576040517f08c379a000000000000000000000000000000000000000000000000000000000815260040161186190611f03565b60405180910390fd5b611876826000836119d1565b60008060008473ffffffffffffffffffffffffffffffffffffffff1673ffffffffffffffffffffffffffffffffffffffff168152602001908152602001600020549050818110156118fc576040517f08c379a00000000000000000000000000000000000000000000000000000000081526004016118f390611e63565b60405180910390fd5b8181036000808573ffffffffffffffffffffffffffffffffffffffff1673ffffffffffffffffffffffffffffffffffffffff168152602001908152602001600020819055508160026000828254611953919061209b565b92505081905550600073ffffffffffffffffffffffffffffffffffffffff168373ffffffffffffffffffffffffffffffffffffffff167fddf252ad1be2c89b69c2b068fc378daa952ba7f163c4a11628f55a4df523b3ef846040516119b89190611fa3565b60405180910390a36119cc836000846119d6565b505050565b505050565b505050565b6000813590506119ea81612509565b92915050565b6000813590506119ff81612520565b92915050565b600060208284031215611a1b57611a1a612200565b5b6000611a29848285016119db565b91505092915050565b60008060408385031215611a4957611a48612200565b5b6000611a57858286016119db565b9250506020611a68858286016119db565b9150509250929050565b600080600060608486031215611a8b57611a8a612200565b5b6000611a99868287016119db565b9350506020611aaa868287016119db565b9250506040611abb868287016119f0565b9150509250925092565b60008060408385031215611adc57611adb612200565b5b6000611aea858286016119db565b9250506020611afb858286016119f0565b9150509250929050565b600060208284031215611b1b57611b1a612200565b5b6000611b29848285016119f0565b91505092915050565b611b3b816120cf565b82525050565b611b4a816120e1565b82525050565b611b59816120ed565b82525050565b6000611b6b8385612029565b9350611b7883858461212e565b82840190509392505050565b6000611b8f82612002565b611b998185612018565b9350611ba981856020860161213d565b611bb281612205565b840191505092915050565b6000611bc88261200d565b611bd28185612034565b9350611be281856020860161213d565b611beb81612205565b840191505092915050565b6000611c03602383612034565b9150611c0e82612216565b604082019050919050565b6000611c26602283612034565b9150611c3182612265565b604082019050919050565b6000611c49602283612034565b9150611c54826122b4565b604082019050919050565b6000611c6c601d83612034565b9150611c7782612303565b602082019050919050565b6000611c8f602683612034565b9150611c9a8261232c565b604082019050919050565b6000611cb2601483612034565b9150611cbd8261237b565b602082019050919050565b6000611cd5602183612034565b9150611ce0826123a4565b604082019050919050565b6000611cf8602583612034565b9150611d03826123f3565b604082019050919050565b6000611d1b602483612034565b9150611d2682612442565b604082019050919050565b6000611d3e602583612034565b9150611d4982612491565b604082019050919050565b6000611d61601f83612034565b9150611d6c826124e0565b602082019050919050565b611d8081612117565b82525050565b611d8f81612121565b82525050565b6000611da2828486611b5f565b91508190509392505050565b6000602082019050611dc36000830184611b32565b92915050565b6000602082019050611dde6000830184611b41565b92915050565b6000602082019050611df96000830184611b50565b92915050565b60006020820190508181036000830152611e198184611b84565b905092915050565b60006020820190508181036000830152611e3b8184611bbd565b905092915050565b60006020820190508181036000830152611e5c81611bf6565b9050919050565b60006020820190508181036000830152611e7c81611c19565b9050919050565b60006020820190508181036000830152611e9c81611c3c565b9050919050565b60006020820190508181036000830152611ebc81611c5f565b9050919050565b60006020820190508181036000830152611edc81611c82565b9050919050565b60006020820190508181036000830152611efc81611ca5565b9050919050565b60006020820190508181036000830152611f1c81611cc8565b9050919050565b60006020820190508181036000830152611f3c81611ceb565b9050919050565b60006020820190508181036000830152611f5c81611d0e565b9050919050565b60006020820190508181036000830152611f7c81611d31565b9050919050565b60006020820190508181036000830152611f9c81611d54565b9050919050565b6000602082019050611fb86000830184611d77565b92915050565b6000604082019050611fd36000830185611d77565b611fe06020830184611b32565b9392505050565b6000602082019050611ffc6000830184611d86565b92915050565b600081519050919050565b600081519050919050565b600082825260208201905092915050565b600081905092915050565b600082825260208201905092915050565b600061205082612117565b915061205b83612117565b9250827fffffffffffffffffffffffffffffffffffffffffffffffffffffffffffffffff038211156120905761208f6121a2565b5b828201905092915050565b60006120a682612117565b91506120b183612117565b9250828210156120c4576120c36121a2565b5b828203905092915050565b60006120da826120f7565b9050919050565b60008115159050919050565b6000819050919050565b600073ffffffffffffffffffffffffffffffffffffffff82169050919050565b6000819050919050565b600060ff82169050919050565b82818337600083830152505050565b60005b8381101561215b578082015181840152602081019050612140565b8381111561216a576000848401525b50505050565b6000600282049050600182168061218857607f821691505b6020821081141561219c5761219b6121d1565b5b50919050565b7f4e487b7100000000000000000000000000000000000000000000000000000000600052601160045260246000fd5b7f4e487b7100000000000000000000000000000000000000000000000000000000600052602260045260246000fd5b600080fd5b6000601f19601f8301169050919050565b7f45524332303a207472616e7366657220746f20746865207a65726f206164647260008201527f6573730000000000000000000000000000000000000000000000000000000000602082015250565b7f45524332303a206275726e20616d6f756e7420657863656564732062616c616e60008201527f6365000000000000000000000000000000000000000000000000000000000000602082015250565b7f45524332303a20617070726f766520746f20746865207a65726f20616464726560008201527f7373000000000000000000000000000000000000000000000000000000000000602082015250565b7f45524332303a20696e73756666696369656e7420616c6c6f77616e6365000000600082015250565b7f45524332303a207472616e7366657220616d6f756e742065786365656473206260008201527f616c616e63650000000000000000000000000000000000000000000000000000602082015250565b7f746f6b656e20616d6f756e74206973207a65726f000000000000000000000000600082015250565b7f45524332303a206275726e2066726f6d20746865207a65726f2061646472657360008201527f7300000000000000000000000000000000000000000000000000000000000000602082015250565b7f45524332303a207472616e736665722066726f6d20746865207a65726f20616460008201527f6472657373000000000000000000000000000000000000000000000000000000602082015250565b7f45524332303a20617070726f76652066726f6d20746865207a65726f2061646460008201527f7265737300000000000000000000000000000000000000000000000000000000602082015250565b7f45524332303a2064656372656173656420616c6c6f77616e63652062656c6f7760008201527f207a65726f000000000000000000000000000000000000000000000000000000602082015250565b7f45524332303a206d696e7420746f20746865207a65726f206164647265737300600082015250565b612512816120cf565b811461251d57600080fd5b50565b61252981612117565b811461253457600080fd5b5056fea264697066735822122055adbe97ae201217a7444303ff43062e83450d61e9613a53ce7beea14ff90fd664736f6c63430008070033",
  "immutableReferences": {},
  "source": "// SPDX-License-Identifier: MIT\npragma solidity ^0.8.4;\n\nimport \"../node_modules/@OpenZeppelin/contracts/token/ERC20/ERC20.sol\";\nimport \"../node_modules/@OpenZeppelin/contracts/token/ERC20/extensions/ERC20Burnable.sol\";\n\n/// @custom:security-contact info@aeternity.org\ncontract WrappedAeternity is ERC20, ERC20Burnable {\n    constructor(address _admin1, address _admin2, address _admin3, address _admin4) ERC20(\"Wrapped Aeternity\", \"WAE\") {\n\n        \n        // make sure the addresses are unique\n        require(_admin1 != _admin2);\n        require(_admin2 != _admin3);\n        require(_admin1 != _admin3);\n        require(_admin1 != _admin4);\n\n        require(_admin1 != address(0x0));\n        require(_admin2 != address(0x0));\n        require(_admin3 != address(0x0));\n        require(_admin4 != address(0x0));\n        \n                //set admins\n        admin1 = _admin1;\n        admin2 = _admin2;\n        admin3 = _admin3;\n        admin4 = _admin4;\n\n        // set bogus initial signatures, so multisig works properly and e.g. empty signatures don't accidentally match;\n        cleanupSignatures();\n    }\n\n    event wrapped(uint256, address);\n    mapping(address => bytes32) public multiSigHashes;\n\n    address public admin1;\n    address public admin2;\n    address public admin3;\n    address public admin4;\n\n    modifier multiSigRequired(uint256 amount) {\n        // check amount\n        require (amount > 0, \"token amount is zero\");\n\n        // check if transaction sender is admin.\n        require (msg.sender == admin1 || msg.sender == admin2 || msg.sender == admin3 || msg.sender == admin4);\n        // if yes, store his msg.data. \n        multiSigHashes[msg.sender] = keccak256(msg.data);\n        // perform a check whether any 2 of the 4 admin's hashes are the same. The minimal required amount of checks \n        // can be taken from this logic table. The idea is that we don't check e.g. admin3 and admin 1's hash, if this check\n        // was performed beforehand already. here are the checks we perform: \n        // \n        //     1  2  3  4 \n        // \n        //  1         \n        // \n        //  2         \n        // \n        //  3         \n        // \n        //  4         \n        // \n        if (\n            (multiSigHashes[admin1] == multiSigHashes[admin2]) \n            ||\n            (multiSigHashes[admin1] == multiSigHashes[admin3])\n            ||\n            (multiSigHashes[admin1] == multiSigHashes[admin4])\n            ||\n            (multiSigHashes[admin2] == multiSigHashes[admin3])\n            ||\n            (multiSigHashes[admin2] == multiSigHashes[admin4])\n            ||\n            (multiSigHashes[admin3] == multiSigHashes[admin4])\n           ) {\n            // if yes, two out of four - continue.\n            _;\n\n            // Reset hashes after successful execution\n            cleanupSignatures();\n        } else {\n            // if not (yet), return.\n            return;\n        }\n    }\n\n    function mint(address _to, uint256 _amount) public multiSigRequired(_amount) {\n        _mint(_to, _amount);\n        emit wrapped(_amount, _to);\n    }\n\n    function cleanupSignatures() private {\n        multiSigHashes[admin1] = keccak256(\"foo\");\n        multiSigHashes[admin2] = keccak256(\"bar\");\n        multiSigHashes[admin3] = keccak256(\"baz\");\n        multiSigHashes[admin4] = keccak256(\"etc\");\n    }\n\n    // explicitly convert address to bytes for the hashing function. \n    // see https://ethereum.stackexchange.com/questions/884/how-to-convert-an-address-to-bytes-in-solidity\n    function toBytes(address a) public pure returns (bytes memory b){\n    assembly {\n        let m := mload(0x40)\n        a := and(a, 0xFFFFFFFFFFFFFFFFFFFFFFFFFFFFFFFFFFFFFFFF)\n        mstore(add(m, 20), xor(0x140000000000000000000000000000000000000000, a))\n        mstore(0x40, add(m, 52))\n        b := m\n   }\n}\n\n}\n",
  "sourcePath": "/app/Blockchain/contracts/WrappedAeternity.sol",
  "compiler": {
    "name": "solc",
    "version": "0.8.7+commit.e28d00a7.Emscripten.clang"
  },
  "schemaVersion": "3.4.7",
  "updatedAt": "2022-08-08T11:34:01.852Z",
  "networkType": "ethereum",
  "devdoc": {
    "custom:security-contact": "info@aeternity.org",
    "kind": "dev",
    "methods": {
      "allowance(address,address)": {
        "details": "See {IERC20-allowance}."
      },
      "approve(address,uint256)": {
        "details": "See {IERC20-approve}. NOTE: If `amount` is the maximum `uint256`, the allowance is not updated on `transferFrom`. This is semantically equivalent to an infinite approval. Requirements: - `spender` cannot be the zero address."
      },
      "balanceOf(address)": {
        "details": "See {IERC20-balanceOf}."
      },
      "burn(uint256)": {
        "details": "Destroys `amount` tokens from the caller. See {ERC20-_burn}."
      },
      "burnFrom(address,uint256)": {
        "details": "Destroys `amount` tokens from `account`, deducting from the caller's allowance. See {ERC20-_burn} and {ERC20-allowance}. Requirements: - the caller must have allowance for ``accounts``'s tokens of at least `amount`."
      },
      "decimals()": {
        "details": "Returns the number of decimals used to get its user representation. For example, if `decimals` equals `2`, a balance of `505` tokens should be displayed to a user as `5.05` (`505 / 10 ** 2`). Tokens usually opt for a value of 18, imitating the relationship between Ether and Wei. This is the value {ERC20} uses, unless this function is overridden; NOTE: This information is only used for _display_ purposes: it in no way affects any of the arithmetic of the contract, including {IERC20-balanceOf} and {IERC20-transfer}."
      },
      "decreaseAllowance(address,uint256)": {
        "details": "Atomically decreases the allowance granted to `spender` by the caller. This is an alternative to {approve} that can be used as a mitigation for problems described in {IERC20-approve}. Emits an {Approval} event indicating the updated allowance. Requirements: - `spender` cannot be the zero address. - `spender` must have allowance for the caller of at least `subtractedValue`."
      },
      "increaseAllowance(address,uint256)": {
        "details": "Atomically increases the allowance granted to `spender` by the caller. This is an alternative to {approve} that can be used as a mitigation for problems described in {IERC20-approve}. Emits an {Approval} event indicating the updated allowance. Requirements: - `spender` cannot be the zero address."
      },
      "name()": {
        "details": "Returns the name of the token."
      },
      "symbol()": {
        "details": "Returns the symbol of the token, usually a shorter version of the name."
      },
      "totalSupply()": {
        "details": "See {IERC20-totalSupply}."
      },
      "transfer(address,uint256)": {
        "details": "See {IERC20-transfer}. Requirements: - `to` cannot be the zero address. - the caller must have a balance of at least `amount`."
      },
      "transferFrom(address,address,uint256)": {
        "details": "See {IERC20-transferFrom}. Emits an {Approval} event indicating the updated allowance. This is not required by the EIP. See the note at the beginning of {ERC20}. NOTE: Does not update the allowance if the current allowance is the maximum `uint256`. Requirements: - `from` and `to` cannot be the zero address. - `from` must have a balance of at least `amount`. - the caller must have allowance for ``from``'s tokens of at least `amount`."
      }
    },
    "version": 1
  },
  "userdoc": {
    "kind": "user",
    "methods": {},
    "version": 1
  }
}